:100000000C9462000C948A000C948A000C948A0070
:100010000C948A000C948A000C948A000C948A0038
:100020000C948A000C948A000C948A000C948A0028
:100030000C948A000C948A000C948A000C948A0018
:100040000C9413040C948A000C9483040C945D04A7
:100050000C948A000C948A000C948A000C948A00F8
:100060000C948A000C948A000000000023002600F3
:10007000290000000000240027002A0000000000E2
:10008000250028002B0004040404040404040202D4
:100090000202020203030303030301020408102007
:1000A0004080010204081020010204081020000012
:1000B0000008000201000003040700000000000027
:1000C0000000FA0411241FBECFEFD8E0DEBFCDBF81
:1000D00011E0A0E0B1E0E4E5F0E102C005900D928E
:1000E000AE3CB107D9F722E0AEECB1E001C01D9201
:1000F000A73DB207E1F710E0C2E6D0E004C02197C7
:10010000FE010E942208C136D107C9F70E942506C8
:100110000C9428080C94000090E0FC01E255FF4F7D
:100120002491FC01E656FF4F3491FC01EA57FF4F42
:10013000E491EE23C9F0222339F0233001F1A8F431
:10014000213019F1223029F1F0E0EE0FFF1FE458C1
:10015000FF4FA591B4918FB7F894EC91611126C02F
:1001600030953E233C938FBF08952730A9F0283067
:10017000C9F0243049F7809180008F7D03C08091C1
:1001800080008F7780938000DFCF84B58F7784BD28
:10019000DBCF84B58F7DFBCF8091B0008F778093CC
:1001A000B000D2CF8091B0008F7DF9CF3E2BDACF57
:1001B000CF93DF9390E0FC01E656FF4F24918A57DE
:1001C0009F4FFC0184918823D1F090E0880F991F04
:1001D000FC01EE58FF4FA591B491FC01E458FF4F8C
:1001E000C591D49161110EC09FB7F8948C91E22F04
:1001F000E0958E238C932881E223E8839FBFDF91D3
:10020000CF9108958FB7F894EC91E22BEC938FBFC8
:10021000F6CF8E3008F08E508770806480937C001B
:1002200080917A00806480937A0080917A0086FDC4
:10023000FCCF80917800909179000895FC0182852F
:1002400093850895FC01848595850895AF92BF92AA
:10025000CF92DF92EF92FF920F931F93CF93DF9392
:100260006C017B018B01040F151FEB015E01AE18C1
:10027000BF08C017D10759F06991D601ED91FC91E3
:100280000190F081E02DC6010995892B79F7C50110
:10029000DF91CF911F910F91FF90EF90DF90CF9062
:1002A000BF90AF900895FC01538D448D252F30E011
:1002B000842F90E0821B930B541710F0CF96089573
:1002C00001970895FC01918D828D981761F0A28DA0
:1002D000AE0FBF2FB11D5D968C91928D9F5F9F7366
:1002E000928F90E008958FEF9FEF0895FC01918D1C
:1002F000828D981731F0828DE80FF11D858D90E089
:1003000008958FEF9FEF0895FC01918D228D892F25
:1003100090E0805C9F4F821B91098F73992708950D
:1003200087ED91E00E94840121E0892B09F420E00F
:10033000822F089580E090E0892B29F00E9490019F
:1003400081110C9400000895FC01A48DA80FB92F11
:10035000B11DA35ABF4F2C91848D90E001968F73ED
:100360009927848FA689B7892C93A089B1898C910C
:10037000837080648C93938D848D981306C002885B
:10038000F389E02D80818F7D80830895EF92FF9225
:100390000F931F93CF93DF93EC0181E0888F9B8DA8
:1003A0008C8D98131AC0E889F989808185FF15C062
:1003B0009FB7F894EE89FF896083E889F989808185
:1003C0008370806480839FBF81E090E0DF91CF9154
:1003D0001F910F91FF90EF900895F62E0B8D10E076
:1003E0000F5F1F4F0F731127E02E8C8D8E110CC0E5
:1003F0000FB607FCFACFE889F989808185FFF5CF30
:10040000CE010E94A401F1CFEB8DEC0FFD2FF11D69
:10041000E35AFF4FF0829FB7F8940B8FEA89FB896C
:1004200080818062CFCFCF93DF93EC01888D8823CA
:10043000B9F0AA89BB89E889F9898C9185FD03C047
:10044000808186FD0DC00FB607FCF7CF8C9185FF2C
:10045000F2CF808185FFEDCFCE010E94A401E9CFCC
:10046000DF91CF910895CF93DF93EC0160E08A8113
:100470000E948C0060E08C81DF91CF910C948C0005
:10048000FC0101900020E9F73197AF01481B590B9F
:10049000BC0187ED91E00C9426018F929F92AF9260
:1004A000BF920F931F93CF93DF93CDB7DEB7A19782
:1004B0000FB6F894DEBF0FBECDBF19A2423008F4CC
:1004C0004AE08E010F5D1F4F842E912CB12CA12C80
:1004D000A50194010E94E207E62FB901CA01EA30A2
:1004E000F4F4E05DD801EE938D01232B242B252B12
:1004F00079F790E080E0109719F0CD010E9440025A
:10050000A1960FB6F894DEBF0FBECDBFDF91CF919D
:100510001F910F91BF90AF909F908F900895E95CCD
:10052000E1CFCF92DF92EF92FF92CF93DF936B01F7
:100530007C016DE287ED91E00E94C601EC01662727
:100540007727CB016C197D098E099F094AE00E942B
:100550004D028C0F9D1FDF91CF91FF90EF90DF90A8
:10056000CF9008950C944002CF93DF930E944002F5
:10057000EC018CE191E00E9440028C0F9D1FDF9105
:10058000CF910895CF93DF93BC01990F880B990BFE
:1005900097FF0CC00E949102EC018CE191E00E9457
:1005A00040028C0F9D1FDF91CF9108954AE00E9479
:1005B0004D02F2CFBC01990F880B990B97FD0C945B
:1005C00091024AE00C944D02CF92DF92EF92FF929B
:1005D0000F931F93CF93DF93EC017B018A01690195
:1005E0008FE191E00E94B202C7010E94DA0282E329
:1005F00091E00E94B202C8010E94C2028E819F81D6
:10060000C816D9068CF48EE391E00E94B4021B86D2
:100610001A861D861C86DF91CF911F910F91FF9046
:10062000EF90DF90CF90089588859985C816D906F8
:10063000ACF489E491E00E94B4028A859B8597FD21
:100640000196959587959B878A878C859D8597FDD3
:100650000196959587959D878C87DDCF8A819B81B3
:10066000E816F90644F5081719072CF584E591E01A
:100670000E94B4028A859B85880F991F8F3F910540
:1006800019F014F08FEF90E08233910514F482E3B7
:1006900090E09B878A878C859D85880F991F8F3F67
:1006A000910519F014F08FEF90E0823391059CF6DC
:1006B00082E390E0D0CF8FE591E00E94B4028A857A
:1006C0009B8597FD039695958795959587959B872F
:1006D0008A878C859D8597FD039695958795959539
:1006E0008795B9CFEF92FF920F931F93CF93DF932C
:1006F000EC018B01161617069CF560E08A810E94BA
:100700008C0061E08C810E948C0088E691E00E9460
:10071000B2028A819B810E94C202AE81BF81980190
:100720000E9413082FEF30E040E050E00E94C30722
:10073000122F032FE22EF32E0990D881C02D61E0F5
:100740008C2F0E94D800E114F104C1F460E08C2FDA
:10075000DF91CF911F910F91FF90EF900C948C003F
:10076000672B49F061E08A810E948C0060E08C81F7
:100770000E948C00D2CF0E943302CFCF8FEFE816B9
:10078000F10411F461E0E3CFFE01FF27E255FF4FD2
:10079000E491E33061F148F4E130C9F0E23011F165
:1007A00080E8E816F10474F7D1CFE73061F1E83062
:1007B00091F1E430A9F780918000806280938000FD
:1007C000812F902F90938B0080938A0004C084B572
:1007D000806884BD17BDDF91CF911F910F91FF906D
:1007E000EF90089584B5806284BD18BDF4CF8091E8
:1007F0008000806880938000812F902F90938900E3
:1008000080938800E8CF8091B00080688093B0002A
:100810001093B300E0CF8091B00080628093B0006D
:100820001093B400D8CF1F920F920FB60F921124DD
:100830002F933F938F939F93AF93BF938091D30157
:100840009091D401A091D501B091D6013091D201FF
:1008500023E0230F2D3758F50196A11DB11D2093DC
:10086000D2018093D3019093D401A093D501B0938A
:10087000D6018091CE019091CF01A091D001B0918D
:10088000D1010196A11DB11D8093CE019093CF019E
:10089000A093D001B093D101BF91AF919F918F915F
:1008A0003F912F910F900FBE0F901F90189526E843
:1008B000230F0296A11DB11DD2CF1F920F920FB62A
:1008C0000F9211242F933F934F935F936F937F93D6
:1008D0008F939F93AF93BF93EF93FF9387ED91E037
:1008E0000E94A401FF91EF91BF91AF919F918F91D1
:1008F0007F916F915F914F913F912F910F900FBE1C
:100900000F901F9018951F920F920FB60F921124FF
:100910002F938F939F93EF93FF93E091E701F091D3
:10092000E8018081E091ED01F091EE0182FD1BC0B4
:1009300090818091F0018F5F8F732091F101821778
:1009400041F0E091F001F0E0E952FE4F958F809385
:10095000F001FF91EF919F918F912F910F900FBE1A
:100960000F901F9018958081F4CFCF92DF92EF9275
:10097000FF920F931F93E82FF92F05C00150110923
:100980002109310961F1908196239417B9F305C0CB
:10099000015011092109310911F190819623941315
:1009A000F7CFC12CD12CE12CF12C0AC08FEFC81A43
:1009B000D80AE80AF80A0C151D052E053F0579F03E
:1009C00080818623841791F36C2D7D2D8E2D9F2D94
:1009D0001F910F91FF90EF90DF90CF90089560E00E
:1009E00070E080E090E01F910F91FF90EF90DF901A
:1009F000CF900895AF92BF92CF92DF92EF92FF9285
:100A00000F931F93CF93DF93E7EDF1E013821282F0
:100A100088EE93E0A0E0B0E084839583A683B7835B
:100A200084E091E09183808385EC90E095878487D2
:100A300084EC90E09787868780EC90E0918B808BA8
:100A400081EC90E0938B828B82EC90E0958B848B91
:100A500086EC90E0978B868B118E128E138E148EFF
:100A600009EC12E086E1A82E81E0B82EF801B182EF
:100A7000A08288E592E0938382839583848398E0C3
:100A8000E92EF12CF782E68284E190E0918780875D
:100A90001386128615861486C4E7D2E08CE090E0B7
:100AA000998388838BE090E09B838A8384E690E03F
:100AB000A0E0B0E08C879D87AE87BF8761E08CE0C7
:100AC0000E94D80060E08BE00E94D80060E08CE0DB
:100AD0000E948C001C821D821E821F82188619862D
:100AE0001A861B86188A89E090E09C8B8B8BFE8A85
:100AF000ED8A87E090E0988F8F8B82E890E09A8F64
:100B0000898F61E089E00E94D80061E08D890E94B0
:100B1000D80061E08F890E94D80083E090E09C8F2C
:100B20008B8F85E090E09E8F8D8F84E090E098A37E
:100B30008F8F8BE990E09AA389A361E083E00E9404
:100B4000D80061E08D8D0E94D80061E08F8D0E94F9
:100B5000D8008FE090E09CA38BA360E00E94D800B7
:100B60008EE090E09EA38DA360E00E94D8008DE00F
:100B700090E098A78FA361E00E94D80024EFC22ED6
:100B8000DD24D394E12CF12CC9A6DAA6EBA6FCA6B1
:100B9000CDA6DEA6EFA6F8AA1AAA19AA1BAA1CAA15
:100BA0001DAA1EAA8AE090E098AF8FAB61E00E9478
:100BB000D800C9AEDAAEEBAEFCAEC092B102D092B4
:100BC000B202E092B302F092B4021092B602109216
:100BD000B5021092B7021092B8021092B9021092A8
:100BE000BA02B092BC02A092BB02F801828193814A
:100BF0009093BE028093BD02848195819093C00240
:100C00008093BF02868197819093C2028093C10234
:100C1000808591859093C4028093C30282859385D9
:100C20009093C6028093C502848595859093C802EF
:100C30008093C702DF91CF911F910F91FF90EF90AA
:100C4000DF90CF90BF90AF900895789484B5826084
:100C500084BD84B5816084BD85B5826085BD85B560
:100C6000816085BD80916E00816080936E001092DE
:100C70008100809181008260809381008091810059
:100C800081608093810080918000816080938000EA
:100C90008091B10084608093B1008091B000816048
:100CA0008093B00080917A00846080937A00809174
:100CB0007A00826080937A0080917A0081608093CC
:100CC0007A0080917A00806880937A001092C10047
:100CD000E091E701F091E80182E08083E091E30197
:100CE000F091E4011082E091E501F091E6018FECD2
:100CF00080831092EF01E091EB01F091EC0186E02E
:100D00008083E091E901F091EA0180818061808334
:100D1000E091E901F091EA01808188608083E091AF
:100D2000E901F091EA01808180688083E091E90126
:100D3000F091EA0180818F7D80839BE3C92ED12CC5
:100D4000E12CF12CC0E0D0E08FB7F8948090D30173
:100D50009090D401A090D501B090D6018FBF809122
:100D6000840281113AC08091780290917902A09119
:100D70007A02B0917B02B501A401481B590B6A0BA2
:100D80007B0B8091800290918102A0918202B091B0
:100D9000830284179507A607B707F8F487E791E061
:100DA0000E94B40261E0809174020E948C0081E094
:100DB000809384022FB7F8948091D3019091D4014D
:100DC000A091D501B091D6012FBF80937C02909362
:100DD0007D02A0937E02B0937F02809184028823DB
:100DE00009F46CC080917C0290917D02A0917E02FA
:100DF000B0917F02881A990AAA0ABB0A85E688166A
:100E00009104A104B10408F459C060E08091740217
:100E10000E948C0080917602909177029927FC01C4
:100E2000E656FF4F6491FC01EA57FF4FE491F0E072
:100E3000EE0FFF1FE859FF4F8591949100E412E4F3
:100E40002FE030E0462F0E94B50461157105810541
:100E5000910529F06F5F7F4F8F4F9F4F9F70A701C4
:100E600096010E94C3073093860220938502109258
:100E7000840282E891E00E94B20280918502909102
:100E800086020E94DA028DE891E00E94B2028CE1B3
:100E900091E00E9440022FB7F8948091D301909185
:100EA000D401A091D501B091D6012FBF80937802D3
:100EB00090937902A0937A02B0937B028EE191E045
:100EC0000E94B40280E991E00E94B20280919702F0
:100ED0000E9409010E94C2028CE991E00E94B202C4
:100EE000809199020E9409010E94C2028AEA91E05F
:100EF0000E94B20280918502909186020E94C202F5
:100F00008090850290908602809199020E9409014A
:100F10005C01809197020E9409019401A501BC0126
:100F20008BEB92E00E94E40284EB91E00E94B2021B
:100F30008091C5029091C6020E94C20280EC91E0AD
:100F40000E94B2028091C7029091C8020E94C20220
:100F50006091C5027091C60287E892E00E94720318
:100F60006091C7027091C8028FE892E00E947203FC
:100F7000209709F4E9CE0E949001882309F4E4CE79
:100F80000E940000E1CE052E97FB1EF400940E9403
:100F9000DA0757FD07D00E94E20707FC03D04EF4A2
:100FA0000C94DA0750954095309521953F4F4F4F5F
:100FB0005F4F089590958095709561957F4F8F4F05
:100FC0009F4F0895A1E21A2EAA1BBB1BFD010DC065
:100FD000AA1FBB1FEE1FFF1FA217B307E407F507E9
:100FE00020F0A21BB30BE40BF50B661F771F881FC5
:100FF000991F1A9469F760957095809590959B015B
:10100000AC01BD01CF010895A29FB001B39FC00103
:10101000A39F700D811D1124911DB29F700D811D24
:101020001124911D08950E940408332312F48A1B91
:101030009B0B0C941D080E940408B7FF0895821BA7
:10104000930B0895EE0FFF1F0590F491E02D099486
:04105000F894FFCF42
:1010540000000000C601260153011302840162014D
:10106400760100000000E4021E0122010D0A005B6B
:1010740044454255475D3D206C6566745072563A4E
:1010840020002072696768745072763A2000746F89
:101094006F20636C6F73652100536C6F7720646FEE
:1010A400776E210073706565642075702121004995
:1010B4006D20736879212100646972656374696FB6
:1010C4006E2070696E2000426567696E20726561EA
:1010D400640044697374616E63653A2000636D0053
:1010E4004C69676874206C65667420004C69676895
:1010F4007420726967687420200044697374616E97
:10110400636520005370656564206C656674200017
:0E11140053706565642072696768742000007E
:00000001FF
